:1000000012C024C023C022C021C020C01FC01EC0F7
:100010001DC01CC01BC01AC019C018C017C016C014
:1000200015C014C013C011241FBECFE5D4E0DEBF3D
:10003000CDBF12E0A0E6B0E0E4E6F7E002C0059034
:100040000D92A234B107D9F764D38AC3D9CF8130D6
:1000500011F4959A01C09598979898E082B367FF3C
:1000600002C0806101C08F7E82BB660F939A939815
:100070009150A1F7979A089581B3886F81BB9698A4
:10008000969A61E280E0E3DF6AEB80E0E0DF64E023
:1000900080E0DDDF64E180E0DADF60E280E0D7DF8E
:1000A0006CE080E0D4CF0F931F93CF93DF9390EE5B
:1000B000980F9136F0F4C82F60E081E0C8DF85E04A
:1000C000C89FE001112400E010E0F801EC0FFD1FD3
:1000D000EE53F040608181E0BADF0F5F1F4F0530C3
:1000E000110599F760E081E0DF91CF911F910F91A9
:1000F000AECFDF91CF911F910F910895CF93DF93F2
:10010000C8EFD1E060E081E0A2DF2197D9F7DF916D
:10011000CF910895CF93C82F862F66E015D360E462
:10012000690F80E094DF8C2F6CE00ED367E0969F20
:10013000602D1124605880E0CF9189CF4F925F925B
:100140007F928F929F92AF92BF92CF92DF92EF9267
:10015000FF920F931F93CF93DF93CDB7DEB76997CD
:100160000FB6F894DEBF0FBECDBFB62E742E90EE44
:10017000980F8E010B5E1F4F913628F0C801B80111
:1001800040E050E016C0A80125E0829FC001112484
:1001900020E030E0F901E80FF91FEE53F0406081F4
:1001A000FA016193AF012F5F3F4F2530310591F781
:1001B000E5CFFB01E190BF01F12C20E030E0A12C64
:1001C000F701022E02C0F595E7950A94E2F7E0FBED
:1001D000CC24C0F8D12CF901EE0FFF1F46010E2EE2
:1001E00001C0880C0A94EAF73196260102C0440C3B
:1001F000551CEA95E2F7F201E829AE2A2F5F3F4F3E
:1002000024303105E9F69A01220F331FE1E0F0E0D6
:10021000EC0FFD1FE20FF31FA082E2E0F0E0EC0F15
:10022000FD1FE20FF31FA0824F5F5F4F4530510566
:1002300009F0BFCF40E050E0FC012191CF01E22F57
:10024000F0E020E030E0D12CB9016C5F7F4F2F014E
:1002500002C0559447946A95E2F7A42DA170B0E0CE
:10026000B901660F771F7D01062E01C0EE0C0A94BE
:10027000EAF76F5F7F4F4D0102C0880C991C6A95A9
:10028000E2F7E828DE282F5F3F4F24303105E1F602
:100290009A01220F331FEBE0F0E0EC0FFD1FE20F9D
:1002A000F31FD082ECE0F0E0EC0FFD1FE20FF31F34
:1002B000D0824F5F5F4F4530510509F0BDCF672DAC
:1002C0008B2D28DF60E081E0C2DE60E081E0BFDEF0
:1002D000CE0101967C018AE0D82EDE0CD7016D910B
:1002E0007D0181E0B4DEDE10F9CF60E081E0AFDEB9
:1002F00060E081E0ACDE61E0670D8B2D0BDF60E03C
:1003000081E0A5DE60E081E0A2DEFE013B967F0198
:10031000D7016D917D0181E09ADEE016F106C1F70B
:1003200060E081E094DE60E081E069960FB6F894C9
:10033000DEBF0FBECDBFDF91CF911F910F91FF9018
:10034000EF90DF90CF90BF90AF909F908F907F9075
:100350005F904F907CCE8F929F92AF92BF92CF9240
:10036000DF92EF92FF920F931F93CF93DF93CDB75E
:10037000DEB7E2970FB6F894DEBF0FBECDBFC62E34
:10038000D42E90EE980F9E01225D3F4F7901913659
:1003900048F04E0132E1830E911CCE018196D401CA
:1003A000A70114C0D901E5E08E9FC001112420E00F
:1003B00030E0F901E80FF91FEE53F04040814D9312
:1003C0002F5F3F4F25303105A1F7E3CFFA01B19000
:1003D000AF01B0FC02C0A12C02C017E0A12EB1FEFB
:1003E00003C0FA2DF863AF2EB2FABB24B0F82B2D60
:1003F00030E0B9017695762F662777956795F6E018
:10040000220F331FFA95E1F7262BA22A9D012151D5
:100410003109F901A0822F5F3F4FF901A0822F5FC0
:100420003F4FF901A082235F3F4FF901B0822F5F58
:100430003F4FF901B082BC921396A817B90731F665
:10044000D7012D9123FF02C04EE001C040E024FD02
:10045000406725FB002700F910E098013695322F00
:10046000222737952795242BA40142505109FA01E0
:100470003081322B3083F4013291322B3083F401FE
:100480003081232B2083F3E08F0E911C8816990670
:10049000C1F6F401B70125E02E0DDB018D91BD0100
:1004A00085FF02C093E001C090E086FD9C6187FD5E
:1004B000906EAF0142505109DA019C934F5F5F4F3C
:1004C000DA019C93908333962613E7CF6D2D8C2D04
:1004D00021DE60E081E0BBDD60E081E0B8DD60E06E
:1004E00081E0B5DD8E010F5F1F4F8FE0B82EB00E9B
:1004F000F80161918F0181E0AADDB012F9CF60E0CF
:1005000081E0A5DD60E081E0A2DD60E081E09FDDCB
:1005100061E06D0D8C2DFEDD60E081E098DD60E036
:1005200081E095DD60E081E092DD8E01005F1F4F8C
:100530005E01FFE1AF0EB11CD8016D918D0181E02C
:1005400086DD0A151B05C1F760E081E080DD60E013
:1005500081E07DDD60E081E07ADD62E06D0D8C2D73
:10056000D9DD60E081E073DD60E081E070DD60E0B6
:1005700081E06DDDF80161918F0181E068DD0E158C
:100580001F05C1F760E081E062DD60E081E05FDDD2
:1005900060E081E0E2960FB6F894DEBF0FBECDBFFB
:1005A000DF91CF911F910F91FF90EF90DF90CF904F
:1005B000BF90AF909F908F904ACDEF92FF920F9394
:1005C0001F93CF93DF9300D0CDB7DEB7F82E162F51
:1005D000E22E622F842F49839A839CDD49819A8180
:1005E0000F2D123029F0133031F4192F942F10C031
:1005F000192FF42E02C0192F17C0F80181918F0115
:100600008823C9F04E2D6F2D99DDF394F394F5CF27
:10061000F80181918F01882371F04E2D692F9A8303
:100620009ADE9A819D5FF4CFF80181918F01882332
:1006300011F039DDF9CF0F900F90DF91CF911F911D
:100640000F91FF90EF900895BF92CF92DF92EF92BB
:10065000FF920F931F93CF93DF9300D01F92CDB7DC
:10066000DEB7582FD62EC42EB22EFE01339632E0BE
:100670002AE040E2511104C0323011F0408305C03D
:10068000852F622F61D0905D9083852F622F5CD083
:10069000582F315031973F3F69F78E010F5F1F4F41
:1006A000F12CE12C82E0E81621F0F8018081803203
:1006B000E9F0F2E0DF1669F083E0D81213C08F2D65
:1006C000880F8F0D682F6C0D4B2DF801808143DE54
:1006D0000CC08F2D880F682F6C0D4B2DF801808179
:1006E0002DDD03C0F8018081DEDCF394E3940F5F1D
:1006F0001F4FF3E0EF12D6CF0F900F900F90DF91C6
:10070000CF911F910F91FF90EF90DF90CF90BF900E
:100710000895B2DCC0E0F2DC22E040E063E080E675
:1007200090E04BDFD1E0DC0F22E043E063E08C2F70
:100730008BDF2FEF83ED90E3215080409040E1F775
:1007400000C00000CD2FE7CF991B79E004C0991FAE
:10075000961708F0961B881F7A95C9F7809508951B
:04076000F894FFCF3B
:100764003E00000000000000005F000000070007DA
:1007740000147F147F14242A7F2A1223130864622E
:1007840036495522500005030000001C2241000098
:1007940041221C0014083E081408083E08080050B2
:1007A40030000008080808080060600000201008F5
:1007B40004023E5149453E00427F40004261514996
:1007C400462141454B311814127F102745454539C0
:1007D4003C4A4949300171090503364949493606FD
:1007E4004949291E00363600000056360000081418
:1007F400224100141414141400412214080201515B
:100804000906324979413E7E1111117E7F494949D9
:10081400363E414141227F4141221C7F49494941A1
:100824007F090909013E4149497A7F0808087F0088
:10083400417F41002040413F017F081422417F4015
:100844004040407F020C027F7F0408107F3E4141FC
:10085400413E7F090909063E4151215E7F0919295C
:1008640046464949493101017F01013F4040403F2B
:100874001F2040201F3F4038403F63140814630783
:10088400087008076151494543007F414100020453
:100894000810200041417F0004020102044040404E
:1008A4004040000102040020545454787F484444DA
:1008B400383844444420384444487F385454541805
:1008C400087E0901020C5252523E7F08040478004B
:1008D400447D40002040443D007F102844000041F6
:1008E4007F40007C041804787C080404783844446D
:1008F40044387C14141408081414187C7C08040468
:10090400084854545420043F4440203C4040207C38
:100914001C2040201C3C4030403C44281028440CFF
:100924005050503C4464544C44000836410000008C
:100934007F0000004136080010080810087846417E
:020944004678F3
:00000001FF
